:020000040800F2
:10000000602700209D01000899370008492C00084E
:1000100049340008EF0D00082954000800000000D2
:10002000000000000000000000000000BF4E0008BB
:10003000A911000800000000053900083951000826
:10004000B7010008B7010008B7010008B7010008B0
:10005000B7010008B701000839140008B70100080B
:10006000B7010008B701000851140008B7010008E3
:10007000B7010008B7010008B7010008B701000880
:10008000B7010008B7010008B7010008B701000870
:10009000B7010008B7010008B7010008B701000860
:1000A000B7010008B7010008B7010008B701000850
:1000B000B7010008B7010008B7010008B701000840
:1000C000B7010008B7010008B7010008B701000830
:1000D000B7010008B7010008B7010008B701000820
:1000E000B7010008B7010008B7010008B701000810
:1000F000B7010008B7010008B7010008B701000800
:10010000B701000835410008B7010008B701000831
:10011000B7010008B7010008B7010008B7010008DF
:10012000B7010008B7010008B7010008AD0F0008CB
:10013000B7010008B7010008B7010008B7010008BF
:10014000B7010008B7010008B7010008B7010008AF
:10015000B7010008B7010008B7010008B70100089F
:10016000B7010008B7010008B7010008B70100088F
:10017000B7010008B7010008B7010008B70100087F
:10018000B7010008B7010008DFF80CD000F096FBBB
:100190000048004755910008602700200648804726
:1001A00006480047FEE7FEE7FEE7FEE7FEE7FEE75C
:1001B000FEE7FEE7FEE7FEE771510008890100084F
:1001C00040EA01039B0703D009E008C9121F08C0D9
:1001D000042AFAD203E011F8013B00F8013B521E59
:1001E000F9D27047D2B201E000F8012B491EFBD2D0
:1001F00070470022F6E710B513460A460446194632
:10020000FFF7F0FF204610BD034600E0401C0278D7
:10021000002AFBD111F8012B00F8012B002AF9D19B
:10022000184670470146002000E0401C0A5C002A86
:10023000FBD1704710B5002200E0521C835C8C5C3F
:10024000A34201D1002BF8D1D8B2E1B2401A10BDBF
:10025000034611F8012B00F8012B002AF9D11846AA
:10026000704770B5064606F04BFB046805460A2247
:100270000021304600F08AFA2C6070BD2DE9FE4F57
:10028000804681EA0300C00F0C46009021F0004137
:1002900023F00045B8EB0200A94105D240462146B3
:1002A00090461C460B46024623F00040104304D102
:1002B0004046214603B0BDE8F08F270DC7F30A0082
:1002C000C3F30A510290401A0190402866DAC3F342
:1002D000130040F4801B0098924620B10023D2EB1B
:1002E000030A63EB0B0B01985946C0F140025046DC
:1002F00000F0CCF906460D4650465946019A00F0EA
:10030000E4F910EB08006141002487EA115284EA05
:10031000E7731A433BD0009A3AB3019A012A4FEA95
:10032000075210DC001B61EB02014FF0004202EAB1
:100330000752CDE90042001C41F5801132462B46A0
:1003400000F069FAB6E7001B61EB0201001C41F501
:10035000801300185B412018A2F5001747EB03013A
:1003600040EAD570B6196D4111E06D084FEA3606C6
:1003700045EAC0754FEA0752001B61EB0201001C01
:1003800041F5801149084FEA3000001951413246C9
:100390002B4603B0BDE8F04F00F030BA00980122C0
:1003A00040000023D0EB020263EBE073009821468B
:1003B0004FEAE074B8EB000061EB0401E9E783F079
:1003C00000435BE781F0004158E72DE9FE4F81EAE9
:1003D000030404F0004421F0004100944FF0000BAE
:1003E00023F0004350EA010402D052EA030404D18E
:1003F0000020014603B0BDE8F08FC3F30A54C1F3F7
:100400000A552C44A4F2F3340194A0FB0254C1F326
:10041000130141F48011C3F3130343F4801301FB70
:10042000024400FB034E840A970A44EA815447EAD7
:100430008357A4FB076802958D0A05FB07854FEAE1
:10044000932C04FB0C542705029D4FEA065847EAFB
:100450001637B5EB08056EEB070C870E920E47EAD0
:10046000811742EA8312A7FB0201B6EB0B0164EB92
:1004700000042B0D43EA0C335E1844EB1C50DA46A3
:100480005146E7FB0201C5F313044FEA0B3343EA7D
:1004900014534FEA0432019C43EA0603A4F10C040E
:1004A0000294009CCDE900B400F0B5F9A2E72DE973
:1004B000F04D81EA030404F0004B21F0004514469E
:1004C0004FF0000A23F0004150EA050220D054EA20
:1004D00001021DD0C5F30A570246C5F31303C1F349
:1004E0001300C1F30A5640F4801543F48013A7EBC0
:1004F0000608101BD64608F2FD3873EB050002D340
:1005000008F1010801E092185B41B8F1000F03DA2D
:1005100000200146BDE8F08D00204FF48011064612
:1005200084460EE0171B73EB050705D3121B63EB24
:10053000050306434CEA010C49084FEA30009218C3
:100540005B4150EA0107EDD152EA030012D082EA82
:10055000040083EA0501084303D100224FF0004361
:1005600008E0101BAB4102D20122002302E06FF031
:10057000010253101AEB06004CEB085110EB0A0075
:1005800041EB0B01BDE8F04D00F038B90EB5C10FDD
:1005900080EAE0700844CA07002140F233438DE846
:1005A0000E000A460B4600F036F903B000BD0EB54A
:1005B00040F2334102910021CDE900110A460B4679
:1005C00000F029F903B000BD70B5C1F30A5201F083
:1005D00000450024C1F3130140F2FF3341F48011C0
:1005E0009A4201DA002070BD40F233439A42A2F2EF
:1005F000334203DC524200F058F800E090402C43B4
:10060000F1D0404270BDC1F30A5210B5C1F31301DD
:1006100040F2FF3341F480119A4201DA002010BD0C
:1006200040F233439A42A2F2334203DC524200F0DA
:100630003CF810BD904010BD30B5002904DB4FF0F0
:100640000044404264EB0101002B04DB4FF0004406
:10065000524264EB03038B4208BF824230BD00006C
:1006600030B50B46014600202022012409E021FA82
:1006700002F59D4205D303FA02F5491B04FA02F57F
:100680002844151EA2F10102F1DC30BD202A04DB52
:10069000203A00FA02F1002070479140C2F1200395
:1006A00020FA03F3194390407047202A04DB203AD4
:1006B00021FA02F00021704721FA02F3D040C2F182
:1006C00020029140084319467047202A06DBCB17C9
:1006D000203A41FA02F043EAE07306E041FA02F3FD
:1006E000D040C2F1200291400843194670470000F3
:1006F0000FB4002300B589B00CA900910B996FF0DD
:100700000042CB601E4B06931E4B07930423CDE99A
:1007100001321D4A089202466B46002000F06EF935
:1007200009B05DF814FB70B586B006464FF0FF3097
:100730000091CDE90101002015460C460490324697
:10074000694604A8FFF7D4FF03460498211825B191
:1007500008B10A4600E022462A6000280DD0002B8E
:1007600002DD0098884208D0081B0094CDE90104FE
:100770003246694604A8FFF7BBFF06B070BD000013
:10078000390C0008570C0008E90800082DE9F0476B
:1007900091460F4680460446002614F8015B2DB1B1
:1007A00000F09EF80068405DC007F6D12B2D02D006
:1007B0002D2D18D0641E4A463946204600F05CFABA
:1007C00027B13968A14201D1C7F8008071054FF007
:1007D00002040BD54042002803DD06F091F80460C6
:1007E000A007BDE8F08746F48066E4E70028F8DA61
:1007F00006F086F804606FF00040F2E710B5002BB9
:1008000008DA401C41F1000192185B411A4301D102
:1008100020F0010010BD2DE9F04D92469B4611B12C
:10082000B1FA81F202E0B0FA80F220329046FFF78E
:100830002DFF04460F4640EA0A0041EA0B015346E9
:100840005A46084303D120463946BDE8F08D11468B
:1008500053EA010015D0C8F140025046FFF725FFCA
:1008600005460E46504659464246FFF70FFF0843DD
:1008700001D0012000E00020054346EAE0762C4349
:1008800037430A984FEA4453A0EB08004FEAD424B8
:100890000A304FF0000244EA47544FEAD72502D508
:1008A00000200146D1E7010510196941DDE908453D
:1008B00000196941BDE8F04DA0E70000064C074D66
:1008C00006E0E06840F0010394E807009847103420
:1008D000AC42F6D3FFF75CFCACAF0008CCAF00082D
:1008E00000487047A8AF000810B50446FFF7F8FFAE
:1008F0000068005D00F0010010BD00002DE9FF4F11
:10090000087881B09946FF2805D0491C2D2804D0CD
:100910000024002308E000230BE00124F9E703EBA7
:10092000830300EB4303491C0878FF28F7D104B187
:100930005B4200200090147801462D2C01D02B2C16
:1009400004D1521C2D2C12D00024009400251678BE
:10095000FF2E0ED00A24A0FB04C801FB048100274F
:1009600000FB0711521C16EB0C006941EFE7012454
:10097000EBE7994450EA010206D101980021C0E951
:10098000001105B0BDE8F08F0024A84D2646DFF821
:10099000A08200F0CEF982468B46B9F1000002DA5F
:1009A000C9F1000714E0074612E0F80707D0224615
:1009B0002B4630464146FFF708FD0646884622464C
:1009C0002B4610461946FFF700FD04460D467F10E2
:1009D000002FEAD1B9F1000F32464346504659463E
:1009E00002DAFFF764FD01E0FFF7EFFC009A0AB1BD
:1009F00081F00041019AC2E90001C2E72DE9FF4FF1
:100A00001F468DB0D7E901464FF0FF382E204546EE
:100A10004FF000090B90B9696D1C0E988847396A30
:100A2000824688470028F6D11AF101000AD024F442
:100A3000D064002E12DDBAF12B0F08D0BAF12D0FC1
:100A40000CD102E0404611B09CE744F48064B969DF
:100A50006D1C0E9888478246A6F10106694660051E
:100A600001D52D2000E02B208DF8000001F1010BB5
:100A70000DF1200809E0B9696D1C0E98884782467F
:100A80000F98761E44F400740560002E02DDBAF162
:100A9000300FF0D00B998A453ED144F0800406E037
:100AA0000F99681CA9F1010944F400740860761ECE
:100AB000B9696D1C0E98884782463028F0D02BE02B
:100AC0000B998A4505D1200603D444F08004761E94
:100AD00018E0504605F084FF08B3761E0DF11301AF
:100AE00044F400748B4508D2AAF130000BF8010BD6
:100AF000200607D5A9F1010003E0200602D409F180
:100B000001008146A00502D50F99681C0860B969EB
:100B10006D1C0E9888478246002ED1DC54E0002ED2
:100B200052DDBAF1650F02D0BAF1450F4CD1A005E4
:100B30004AD5761EB96924F440746D1C0E98884716
:100B40008246002E0DDD2B2804D0BAF12D0F08D1DE
:100B500044F48074B9696D1C0E9888478246A6F1EA
:100B60000106E00501D52D2100E02B2108F8011B2D
:100B7000CDF82C8021E0761E0DF1290144F400749B
:100B800088450CD2AAF1300010F0FF0088F8000070
:100B900002D10B99884509D908F1010806E0E00562
:100BA00001D5244801E042F20F708146B9696D1CFD
:100BB0000E98884782460F980560002E04DD504647
:100BC00005F00EFF0028D6D1F9690E988847FF205E
:100BD0008BF8000088F800000020069007904B4634
:100BE0006A4608A906A8FFF789FEA00502D46FF09F
:100BF000010028E714F0240F0AD0E00714D1DDE942
:100C000006123868031D3B600068C0E900120BE063
:100C1000DDE9060100F099F80146E00704D13868E3
:100C2000021D3A600068016028460CE7000024407D
:100C30000000F03FF1D8FFFF426842B1016811F8AF
:100C4000013B23B1521EC0E9001218467047012132
:100C5000C160881E704742685AB1C368016843B9D1
:100C600083688B4205D0491E521CC0E90012002047
:100C700070474FF0FF3070472DE9F05F82460078F3
:100C8000002715468B460AF10104B946302801D0E9
:100C90009DB113E014F8010B0127782803D05828E0
:100CA00001D045B10AE00DB1102D07D10027102564
:100CB00014F8010B02E0082500E00A250026B046E2
:100CC0000EE005FB080005FB06F1012701EB1046CD
:100CD0001FFA80F8B6F5803F00D3B94614F8010B2F
:100CE000294600F018F80028EBDABBF1000F05D018
:100CF0000FB1641E00E05446CBF80040B9F1000F7C
:100D000006D005F0FDFD02210160C81EBDE8F09F80
:100D100048EA0640FAE73A2800D2303820F02002AC
:100D2000412A01D3A2F13700884201D34FF0FF30AE
:100D300070470EB540F2334202920022CDE9002204
:100D40001346FFF768FD03B000BD01F0004330B467
:100D500021F0004150EA010206D00A0DA2F56072AE
:100D6000C1F31301002A02DC30BC00207047440F9D
:100D700044EAC104C100E01830BC00EBC250AFF33C
:100D800000800029A8BF7047401C490008BF20F020
:100D90000100704710B4B0FA80FC00FA0CF050EA81
:100DA000010404BF10BC704749B1CCF1200421FA02
:100DB00004F411FA0CF118BF012121430843A3EBFD
:100DC0000C01CB1D0106000A002BBEBF002010BC89
:100DD000704700EBC35010440029A4BF10BC7047FB
:100DE000401C490008BF20F0010010BC7047FEE71E
:100DF00070B50D46064614460549002002F0B6FEC1
:100E0000034B18783060587828609878206070BD5F
:100E1000AC00002070B5384905460024086800E0A1
:100E2000086810F0450FFBD0410702D503240420C9
:100E300003E0C00704D00124204603F023F959E061
:100E400003F050F9A8422BD140F2FF5003F01AF9F9
:100E5000002003F069F9294908424BD0002801DA43
:100E60001C2070BD410001D5092070BD810001D555
:100E70000A2070BDC10001D50B2070BD010101D554
:100E80000C2070BD410101D50D2070BDC10101D5FF
:100E90000E2070BD010201D50F2070BD410201D5A9
:100EA000102070BD810201D5112070BDC10201D595
:100EB000122070BD010301D5132070BD410301D57F
:100EC000142070BD810301D5152070BDC10301D56B
:100ED000162070BD010401D5172070BD410401D555
:100EE000182070BD810401D5192070BD000701D5FF
:100EF0001A2070BD204670BD342C014008E0FFFD73
:100F000010B50C480024016800E0016811F0450F9D
:100F1000FBD0480702D50324042003E0C80705D00E
:100F20000124204603F0AEF8204610BD40F2FF50E9
:100F3000F8E70000342C014070B50C461A4906460B
:100F40000025086800E0086810F0450FFBD0410755
:100F500002D50324042003E0C00705D00124204665
:100F600003F090F8204670BD03F0BCF8B04213D1F6
:100F700040F2FF5003F086F8002003F0D5F810F49B
:100F8000604F03D0810405D5132070BD4FEA104097
:100F9000208007E0410401D5102070BD000401D578
:100FA0000F2070BD284670BD342C014003F02CBDCD
:100FB000074A904201D2074801E005481038064A26
:100FC0008B0001EA020101D5C16070478160704762
:100FD00010640240006002407D0F7D0F002901680F
:100FE00002D041F0010101E021F0010101607047F0
:100FF0002DE9F043016821F0010101600021016049
:1010000041608160C1600161212141613C493C4AEC
:101010003D251039904202D18D60BDE8F083384AF9
:101020004FF474661832904201D18E60F5E7344A6D
:101030004FF474173032904201D18F60EDE7304A9F
:101040004FF0746C4832904202D1C1F808C0E4E716
:101050002B4B2C4A6033984201D1CA60DDE7284C03
:10106000294B7834A04201D1CB60D6E7DFF89080DD
:10107000264C08F19008404501D1CC60CDE7DFF85F
:1010800080804FF03D5908F1A808404502D1C1F8D1
:101090000C90C2E71E49DFF878800839404501D13D
:1010A0000D60BAE71A4D1835A84201D10E60B4E7B9
:1010B000174D3035A84201D10F60AEE7144D4835C9
:1010C000A84202D1C1F800C0A7E7114D1049603510
:1010D000091FA84201D10A609FE70D4A7832904269
:1010E00001D10B6099E70A4A9032904201D10C601D
:1010F00093E7074AA83290428FD1C1F800908CE75D
:10110000106002403D000020400F002000003D2004
:10111000106402400029016802D041F0200101E082
:1011200021F02001016070470B0607D5436912B119
:1011300043F0800301E023F080034361802908D05D
:10114000002A026801F01E0101D00A4300E08A4330
:101150000260704730B50368124ACC6813400A68D1
:101160002243D1E905452C432243CC6922430C6A32
:1011700022434C6A22438C6A22434C6B22438C6B81
:1011800022431A430260426922F00703D1E90B248B
:1011900022431A4342610A6942604A688260896850
:1011A000C16030BD3F801CF07047002107E00C2279
:1011B0001300A2F10102D2B2FAD1491C89B28142D4
:1011C000F5D370472DE9F04786B004464FF000098B
:1011D0005848CDF80490CDF80890CDF80C900078E0
:1011E0000D46002873D103AA02A901A8FFF700FE4B
:1011F0004FF0C80802F098FEA0F24C40400190FB6E
:10120000F8F7002FF6D0022602F08EFE0028FBD061
:1012100002F08AFEA0F24C40410191FBF8F0761CEE
:1012200007440A2EF0DB761E97FBF6F6202E01DD32
:10123000202602E0002E00DA0026019B0A2093FB04
:10124000F0F202F130018DF8101000FB1231303154
:101250008DF811103A21029A8DF8121092FBF0F1DC
:1012600000FB112030308DF8140001F13003A01C78
:101270002F1D8DF813308DF815904FF4FC6A202E39
:1012800016D04FF6FF78A9B280B20D232122CDF8F7
:10129000008001F013FEB9B2A0B206230122CDF8FE
:1012A000008001F00BFE0A2E12DA4FF4784019E0AC
:1012B0005646A9B280B20D232122CDF800A001F03C
:1012C000FDFD0623B9B2A0B20122009612E02EE085
:1012D000142E02DA4FF6E07004E0202E01DA5046B8
:1012E00000E0404680B20090A01B2330B2B2A9B209
:1012F00080B20D2301F0E2FD4E460E232222294644
:10130000A01CCDF8009001F0B9FA08230322E91CD3
:10131000601E009601F0B2FA41F23420ED1C641D0B
:101320000090A9B2A0B2002304AA01F083FB06B08A
:10133000BDE8F087940000202DE9FC5F8046801E08
:101340004FF6FF7482B2A8F10F078946B8B20B4678
:10135000009401F0B6F908F10F0608F102004B46BF
:10136000B2B280B21946009401F0ABF9A9F10200C3
:1013700083B2A9F10F054246A9B21046009401F0CC
:10138000A0F9009409F1020009F10F0481B242466C
:10139000A3B2104601F095F94BF6F04AA8F1070BFD
:1013A000A3B21FFA8BF2A1B2B8B2CDF800A001F03F
:1013B00088F909F10700CDE900A081B2A3B2BAB261
:1013C000B8B201F07EF9ABB21FFA8BF2A9B2B8B293
:1013D000CDF800A001F075F9A9F10709ABB2BAB2D6
:1013E0001FFA89F1B8B2CDF800A001F06AF91637FA
:1013F000A3B2B2B2A1B2B8B2CDF800A001F061F9C7
:101400000198A3B281B2B2B2CDF800A0B0B201F09F
:1014100058F9ABB2B2B2A9B2B8B2CDF800A001F09F
:1014200050F91FFA89F3B2B2A9B2B0B2CDF800A058
:1014300001F047F9BDE8FC9F10B5012000F01AF853
:10144000002804D0BDE81040012000F00DB810BD08
:1014500010B5102000F00EF8002804D0BDE81040B0
:10146000102000F001B810BD01490860704700006D
:10147000143C0140064A014600201268044B0A4011
:1014800014331B680B4202D0002A00D001207047A1
:10149000003C014030B51A498379026853B30B68A8
:1014A00093430B600A1D13680468A3431360027919
:1014B0000A441368046823431360114A083213680E
:1014C0000468A3431360131D1C680568AC431C60CB
:1014D0004479102C05D021440A68006802430A6050
:1014E00030BD116804682143116019680068014328
:1014F000196030BD0079084401689143016030BD36
:10150000003C014001490860704700000C3C02406B
:1015100030B50546002429B1012927D0022928D059
:101520004FF4407400F07CF808281ED1124B186864
:1015300020F440701860186820431860186820F084
:10154000F8001860186845F0020108431860186830
:1015500040F48030186000F063F8196821F002014F
:101560001960196821F0F801196030BD4FF48074DA
:10157000D8E74FF40074D5E7103C02400B4908202F
:101580000A68D20301D5012070470A68D20601D546
:10159000052070470A6812F0EF0F01D0062070474F
:1015A00009688907FBD50720704700000C3C024002
:1015B0000248016841F0004101607047103C024060
:1015C00030B50C46054600F02BF8082813D10A4B1D
:1015D000186820F440701860186840F400701860B3
:1015E000186840F0010018602C6000F019F81968C4
:1015F00021F00101196030BD103C0240054800682F
:10160000002805DA034804490C38016003490160E9
:1016100070470000103C024023016745AB89EFCDC5
:1016200000B500BFFFF7AAFF0128FBD000BD0000F6
:101630004FF0204202EB80000029016802D041F007
:10164000010101E0014A114001607047FEFF0F00F7
:1016500030B5D0E901121143D0E903231A431143F5
:1016600042690368114382691143C2691143026AE6
:101670001143426A1143826A1143C26A1143026BE9
:1016800011434FF0204242F823108168082906D107
:10169000016802EB81010B6843F040030B60416B72
:1016A000D1E9003443EA04138C688D89240244EAAA
:1016B000054423430C8A43EA04530C7D896943EAB9
:1016C00004630B43016802EB81014B60C16AB1F511
:1016D000804F07D000686FF0704102EB8000C0F8C7
:1016E000041130BD816B0068D1E9003443EA041372
:1016F0008C680D8A240244EA055423430C7D8969D1
:1017000043EA046302EB80000B43C0F8043130BDB0
:101710002DE9FC5F0025484C00954FF48068019549
:101720004027C4F81080C4E902750E464FF0080B3C
:101730001021C4E900B1A946204602F025FD102081
:10174000FFF768FB002841D13C48BA464F46008964
:10175000000420603720C4E9010AC4E90398204648
:1017600002F012FD3720FFF755FB00282ED1411E55
:1017700004F11400C0E9001B302181600221C0E99E
:1017800003170121416102F095FC3320C4F808A041
:10179000C4E90070C4E90378204602F0F5FC332068
:1017A000FFF738FB040011D1254F4FF4001AE9462A
:1017B00040F22A68386810EA080F09D0082002F0C1
:1017C00097FC80B1082002F05DFC0420BDE8FC9F7E
:1017D000504602F08DFC0028ECD002F0CFFC49F816
:1017E00025006D1CE6E7022002F082FC20B10220F9
:1017F00002F048FC0220E9E7202002F079FC20B149
:10180000202002F03FFC0620E0E74FF40075284658
:1018100002F06EFC20B1284602F034FC0720D5E728
:1018200040F2FF5002F02EFC009800BA7060019860
:1018300000BA30602046C9E758010020240000208B
:10184000342C01402DE9F0438046ADF2044D4FF4B5
:1018500080690020FD4EFE4FFE4CCDF80004E7608D
:1018600006F068F818B9FC49002006F041FD012295
:101870004146FA4806F04CFD00B1FEE70DF58063E5
:1018800004226946F54806F034FFF54D28709DF8AE
:101890000310009861F31F60F2490840B0F1005F47
:1018A000EE4807D006F0B2F8287000200DF2044D83
:1018B000BDE8F08306F0AAF8287001224146E74807
:1018C00006F026FD00B1FEE7FFF798FEF320FFF7D4
:1018D00019FE384601F046F92060E048DB49C0684F
:1018E000491C01EB900001F03DF96060206807E0C1
:1018F0000121FFF70DFE082800D0FEE7A0680830A0
:10190000A06061688842F3D9D749E068FFF758FEC4
:10191000E068D649001DE060FFF752FEE068D44958
:10192000001DE060FFF74CFEE068D249001DE0605A
:10193000FFF746FEE068D049001DE060FFF740FE7B
:10194000E068CE49001DE060FFF73AFEE068CC4950
:10195000001DE060FFF734FEE068CA49001DE0604A
:10196000FFF72EFEE068C849001DE060FFF728FE83
:10197000E068C649001DE060FFF722FEE068C44948
:10198000001DE060FFF71CFEE068C249001DE0603A
:10199000FFF716FEE068C049001DE060FFF710FE8B
:1019A000E068BE49001DE060FFF70AFEE068BC4940
:1019B000001DE060FFF704FEE068BA49001DE0602A
:1019C000FFF7FEFDE068B849001DE060FFF7F8FD95
:1019D000E068B649001DE060FFF7F2FDE068B44939
:1019E000001DE060FFF7ECFDE068B249001DE0601B
:1019F000FFF7E6FDE068B049001DE060FFF7E0FD9D
:101A0000E068AE49001DE060FFF7DAFDE068AC4930
:101A1000001DE060FFF7D4FDE068AA49001DE0600A
:101A2000FFF7CEFDE068A849001DE060FFF7C8FDA4
:101A3000E068A649001DE060FFF7C2FDE068A44928
:101A4000001DE060FFF7BCFDE068A249001DE060FA
:101A5000FFF7B6FDE068A049001DE060FFF7B0FDAC
:101A6000E0689E49001DE060FFF7AAFDE0689C4920
:101A7000001DE060FFF7A4FDE0689A49001DE060EA
:101A8000FFF79EFDE0689849001DE060FFF798FDB4
:101A9000E0689649001DE060FFF792FDE068944918
:101AA000001DE060FFF78CFDE0689249001DE060DA
:101AB000FFF786FDE0689049001DE060FFF780FDBC
:101AC000E0688E49001DE060FFF77AFDE0688C4910
:101AD000001DE060FFF774FDE0688A49001DE060CA
:101AE000FFF76EFDE0688849001DE060FFF768FDC4
:101AF000E0688649001DE060FFF762FDE068844908
:101B0000001DE060FFF75CFDE0688249001DE060B9
:101B1000FFF756FDE0688049001DE060FFF750FDCB
:101B2000E0687E49001DE060FFF74AFDE0687C49FF
:101B3000001DE060FFF744FDE0687A49001DE060A9
:101B4000FFF73EFDE0687849001DE060FFF738FDD3
:101B5000E0687649001DE060FFF732FDE0687449F7
:101B6000001DE060FFF72CFDE0687249001DE06099
:101B7000FFF726FDE0687049001DE060FFF720FDDB
:101B8000E0686E49001DE060FFF71AFDE0686C49EF
:101B9000001DE060FFF714FDE0686A49001DE06089
:101BA000FFF70EFDE0686849001DE060FFF708FDE3
:101BB000E0686649001DE060FFF702FDE0686449E7
:101BC000001DE060FFF7FCFCE0686249001DE0607A
:101BD000FFF7F6FCE0686049001DE060FFF7F0FCED
:101BE000E0685E49001DE060FFF7EAFCE0685C49E0
:101BF000001DE060FFF7E4FCE0685A49001DE0606A
:101C0000FFF7DEFCE0685849001DE060FFF7D8FCF4
:101C1000E0685649001DE060FFF7D2FCE0685449D7
:101C2000001DE060FFF7CCFCE0685249001DE06059
:101C3000FFF7C6FCE0685049001DE060FFF7C0FCFC
:101C4000E0684E49001DE0609AE0000000C2000814
:101C500000C0000870000020A0010020D405002072
:101C6000440000200000FE2F6D300008E52C000825
:101C7000BD2E000819320008652F0008B92F000892
:101C8000113000081D300008753200086932000864
:101C90007D320008D5310008E1310008F13100083B
:101CA000512E0008652E0008472E00083D2E000822
:101CB0005B2E0008CB310008C131000861300008FC
:101CC00055300008B1310008A13100088D2300080B
:101CD00095250008D3230008E1240008BD2500084D
:101CE00021240008F9290008A5270008352A000842
:101CF000C3260008DD2200087D280008D928000836
:101D0000E7250008E5250008357900088F790008E7
:101D1000697900089779000847790008F18200087E
:101D200011830008F3860008297B00080D7A00085B
:101D30004B84000855880008A9890008058C000814
:101D40001F7A00087F8A0008E78900080B8B0008CB
:101D50006F7C0008BD790008B18B0008AB880008D3
:101D6000D17D00089F860008CB860008AB84000860
:101D7000E17A000811520008F53D0008715300088F
:101D8000FFF71EFCE068A349001DE060FFF718FCA8
:101D9000E068A149001DE060FFF712FCE0689F4980
:101DA000001DE060FFF70CFCE0689D49001DE0604D
:101DB000FFF706FCE0689B49001DE060FFF700FCB0
:101DC000E0689949001DE060FFF7FAFBE068974979
:101DD000001DE060FFF7F4FBE0689549001DE0603E
:101DE000FFF7EEFBE0689349001DE060FFF7E8FBBA
:101DF000E0689149001DE060FFF7E2FBE0688F4971
:101E0000001DE060FFF7DCFBE0688D49001DE0602D
:101E1000FFF7D6FBE0688B49001DE060FFF7D0FBC1
:101E2000E0688949001DE060FFF7CAFBE068874968
:101E3000001DE060FFF7C4FBE0688549001DE0601D
:101E4000FFF7BEFBE0688349001DE060FFF7B8FBC9
:101E5000E0688149001DE060FFF7B2FBE0687F4960
:101E6000001DE060FFF7ACFBE0687D49001DE0600D
:101E7000FFF7A6FBE0687B49001DE060FFF7A0FBD1
:101E8000E0687949001DE060FFF79AFBE068774958
:101E9000001DE060FFF794FBE0687549001DE060FD
:101EA000FFF78EFBE0687349001DE060FFF788FBD9
:101EB000E0687149001DE060FFF782FBE0686F4950
:101EC000001DE060FFF77CFBE0686D49001DE060ED
:101ED000FFF776FBE0686B49001DE060FFF770FBE1
:101EE000E0686949001DE060FFF76AFBE068674948
:101EF000001DE060FFF764FBE0686549001DE060DD
:101F0000FFF75EFBE0686349001DE060FFF758FBE8
:101F1000E0686149001DE060FFF752FBE0685F493F
:101F2000001DE060FFF74CFBE0685D49001DE060CC
:101F3000FFF746FBE0685B49001DE060FFF740FBF0
:101F4000E0685949001DE060FFF73AFBE068574937
:101F5000001DE060FFF734FBE0685549001DE060BC
:101F6000FFF72EFBE0685349001DE060FFF728FBF8
:101F7000E0685149001DE060FFF722FBE0684F492F
:101F8000001DE060FFF71CFBE0684D49001DE060AC
:101F9000FFF716FBE0684B49001DE060FFF710FB00
:101FA000E068001DC4F80C000DF580634A466946E0
:101FB000454806F09EFB287000B1FEE70024E84685
:101FC00019E000BF08EB040018F80470C2788378A9
:101FD0001206407842EA034242EA002007433946AB
:101FE0003046FFF7EDFA0828F9D13068B84200D042
:101FF000FEE7361D241DDDF800048442E2D3484587
:10200000D2D0314805F002FD2870FFF7D1FA012047
:102010004CE4000039130008C1510008293F0008B2
:102020004153000819940008D98E00082D54000867
:10203000A55800083958000879580008615500086B
:1020400065570008A9560008355700086D55000867
:10205000C1580008355900089D59000889590008E1
:1020600041590008615A0008255E00088D5B000890
:10207000015F0008095B00085D5B0008DD5A00088D
:10208000593400084D3400089535000865340008BF
:10209000C9350008A13500086D3500082560000825
:1020A000B5610008E5600008F16000087D61000886
:1020B0005961000831610008116200089D62000842
:1020C00089630008A9620008D40500202DE9F05FAB
:1020D000424D82462021284600F0F5F80126404C6A
:1020E000002708B1A67001E0A07888B12021284619
:1020F00000F0E9F860B10A2131200A00A1F10101E4
:1021000089B2FAD10200A0F1010080B2F5D1A77026
:10211000AB464FF4F0784FF4A079324D01F06AFEEF
:102120000146314A2F4806F0D7FE6888404502D85C
:102130002888484505D92021584600F0C4F80028D1
:10214000ECD0A078002847D1BAF1000F15D0BAF131
:10215000010F41D12C886E882021584600F0B3F839
:1021600078B3002501F078F900282A463146204648
:1021700029D0BDE8F05F01F075B9A8462021584686
:1021800000F0A1F838B10025607835EA000000D0F1
:10219000667015B102E00125F6E767704446B8F8AD
:1021A0000210B8F800002A4603F0F0FC03F052FCDD
:1021B000002811D1618820882A46BDE8F05F03F02D
:1021C000D1BA0125CEE703F0CDFA2A4631462046A2
:1021D000BDE8F05F04F0D8B8BDE8F09F0008024009
:1021E0009400002090000020102300200449087073
:1021F00018B1012803D104F045BA04F087B970473B
:1022000094000020F0B50023012403270D6804FA90
:1022100003F21540954242D1D0F800C05E0007FAA3
:1022200006F52CEA050CC0F800C091F804C0D0F8FF
:1022300000E00CFA06FC4CEA0E0CC0F800C091F865
:1022400004C0BCF1010F02D0BCF1020F1FD1D0F8C5
:1022500008C02CEA050CC0F808C091F805C0D0F8F9
:1022600008E00CFA06FC4CEA0E0CC0F808C0D0F8E6
:1022700004C02CEA020CC0F804C0426891F806C001
:102280000CFA03FC1FFA8CFC42EA0C024260C268A2
:10229000AA43C260CA79C568B2402A43C2605B1CC7
:1022A000102BB3D3F0BD4B07DB0E9A40C90810B515
:1022B00000EB8100016A0F249C40A1430162016A86
:1022C0001143016210BD0246002012690A4200D08B
:1022D0000120704741837047018370472DE9FC5FFF
:1022E0008146002006460190C2F101001F46884643
:1022F0001446450009EB060008EB040A0090BAB248
:102300001FFA8AF180B200F087FFA9EB060BBAB280
:102310001FFA8AF11FFA8BF000F07EFF0098A8EBFD
:10232000040ABAB21FFA8AF180B200F075FFBAB29D
:102330001FFA8AF11FFA8BF000F06EFF01988442B9
:1023400022DB002D0BDA05EB04014FF0FF3000EB30
:102350004100002811DC761C05EB46050BE00CDD86
:10236000A91B4FF0FF3000EB4100002805DD641E83
:10237000604205EB40056D1CBCE7761C641E301BFB
:1023800005EB4005AD1EB5E7BDE8FC9F2DE9FF5FFD
:102390009A460E9890460E4601EB0A07144602EB49
:1023A000000912E03546A4EB080B0BE0AA1B0BFB5F
:1023B0000A21009830F82100A1B282B2A8B200F040
:1023C0002BFF6D1CAF42F1DC641CA145EADCBDE8CB
:1023D000FF9F2DE9FF5F9A460E9890460E461546E0
:1023E00002EB000918E0A5EB080B344606EB0A07E0
:1023F0000FE0A21B0BFB0A21009850F821000F9957
:10240000884200D11098A9B282B2A0B200F004FFB5
:10241000641CA742EDDC6D1CA945E4DCBDE8FF9F10
:102420002DE9F04F9FB08846DDE929AB78211E9158
:102430009146002401461F46264601221D4805F00C
:1024400067FF78B3002301221BA11EA001F0A8F8AA
:102450001FB0BDE8F08F1EAB78226946154806F024
:1024600048F900251BE000BF0DEB05000088504532
:1024700000D1584682B209EB060081B208EB040095
:1024800080B200F0C9FE641CBC4201DB0024761C53
:10249000B6F5F07F06DCB4F5A07F03DCAD1C1E981A
:1024A0008542E1DB1E987828D5D0024805F0AEFAC7
:1024B000CEE70000D40500205344204572726F72AD
:1024C00000000000233E205344202D204572726FEF
:1024D00072204F70656E20496D6167653B0A000090
:1024E0002DE9F04F9FB0894678211E919046002437
:1024F00001461F46264601221B4805F009FF60B32E
:102500000023012219A11CA001F04AF81FB0BDE868
:10251000F08F1EAB78226946134806F0EAF80025D2
:10252000EA464FF4F07B15E00AEB0500028808EB61
:10253000060081B209EB040080B200F06DFE641C5D
:10254000BC4201DB0024761C5E4506DCB4F5A07FAE
:1025500003DCAD1C1E988542E6DB1E987828D8D097
:10256000014805F053FAD1E7D40500205344204533
:1025700072726F7200000000233E205344202D2011
:102580004572726F72204F70656E20496D6167658C
:102590003B0A00002DE9F8431D4616460F468046CB
:1025A000089C00F05DFD2B463246394640460094BB
:1025B000FFF7ECFEBDE8F84300F04CBD2DE9F84311
:1025C0001D4616460F468046089C00F049FD2B46E6
:1025D0003246394640460094FFF782FFBDE8F84393
:1025E00000F038BD70472DE9FF4F85B00022154639
:1025F0000492069B089A129903261A44921B03928E
:10260000DA1C8FB20292079900F103090844801B7B
:1026100034466FF0030801900398029900EB040B15
:102620000198A1EB040A284482B200971FFA8BF3A9
:102630001FFA8AF180B200F044F8A9EB050082B2DB
:102640001FFA8AF31FFA8BF180B2009700F039F875
:102650000498844225DBB8F1000F0BDA08EB040183
:102660004FF0FF3000EB4100002813DC6D1C08EB3D
:1026700045000CE00EDDA8EB05014FF0FF3000EB4C
:102680004100002806DD641E614208EB4100401C49
:102690008046C1E76D1C641E291B08EB4100801EAB
:1026A000F6E70898009783B20798801B801B82B2D8
:1026B000069881B21FFA89F000F000FC09B0BDE86D
:1026C000F08F2DE9F0471646DDF820A005460C46B0
:1026D0001F46B04201D92E4695B2BC4201D90F46E1
:1026E0009CB2701B0FFA80F9381B0FFA80F8B9F111
:1026F000000F07D0B8F1000F0FD0C14530DDC9EB96
:10270000480026E052462146284600F085FD641C1C
:10271000A4B2A742F6D2BDE8F08752462146284629
:1027200000F07AFD6D1CADB2AE42F6D2F3E7524630
:102730002146284600F070FD6D1CADB2002F0CDD67
:102740004FEA4801C9F10000641C01EB4000A4B24B
:10275000384407B2B542EAD11AE007EB4800F8E77F
:10276000C8EB490011E052462146284600F054FDCE
:10277000641CA4B2002E12DD4FEA4801C9F100002A
:102780006D1C01EB4000ADB2304406B2BC42EAD150
:10279000524621462846BDE8F04700F03DBD06EB15
:1027A0004800F2E72DE9FC5F0646884614469B4642
:1027B00001A96846DDF830A000F09AF900F0CCF9E4
:1027C000002841F23429204604D000F067F907467A
:1027D00000254EE000F062F90746002522E00024C3
:1027E0001AE0795DC4F10702D140C90707D0011B87
:1027F00001EB080081B2701980B25A4608E0CA4560
:1028000008D0011B01EB080081B2701980B252465A
:1028100000F002FD641CE4B29DF804008442E0D3A1
:102820006D1CEDB29DF800008542D8D3BDE8FC9F39
:10283000002418E0785DC4F10701C840C00706D045
:1028400008EB050081B2301980B25A4607E0CA454C
:1028500007D008EB050081B2301980B2524600F073
:10286000DBFC641CE4B29DF800008442E2D36D1CE2
:10287000EDB29DF804008542DAD3D7E72DE9F8439D
:10288000064608981F4684B2B018A0F101080D460C
:102890008BB21FFA88F289B2B0B20094FFF711FF31
:1028A0002F447F1EBBB21FFA88F2B9B2B0B20094B7
:1028B000FFF707FFBBB2B2B2A9B2B0B20094FFF704
:1028C00000FFBBB21FFA88F2A9B21FFA88F0009489
:1028D000FFF7F7FEBDE8F8832DE9FF4F87B0002032
:1028E000054604900798032400F1030A0898149FF2
:1028F00000F103091844A0EB0408029007986FF058
:10290000030B1044061B0190A9EB040081B2009058
:1029100070190590BAB280B200F07EFC08EB04009A
:1029200081B203900598BAB280B200F075FC0398AA
:10293000BAB281B2AAEB0500039080B200F06CFC41
:102940000098BAB281B2039880B200F065FC049896
:10295000844225DBBBF1000F0BDA0BEB04014FF0D7
:10296000FF3000EB4100002813DC6D1C0BEB450031
:102970000CE00EDDABEB05014FF0FF3000EB41004A
:10298000002806DD641E61420BEB4100401C8346BB
:10299000BAE76D1C641E291B0BEB4100801EF6E795
:1029A0000898BCB283B281B20094B2B21FFA8AF026
:1029B000FFF787FE0298009483B281B2B2B21FFA89
:1029C0008AF0FFF77EFE07981FFA88F3401E82B256
:1029D00000941FFA89F180B2FFF773FE01981FFA85
:1029E00088F3401C82B200941FFA89F180B2FFF78D
:1029F00068FE0BB0BDE8F08F10B56424E010C00293
:102A0000A11040EA411040EAE40080B200F06AF907
:102A10000A34C82CF2DBC824E010C002A11040EA3E
:102A2000411040EAE40080B200F05CF90A3C002C5E
:102A3000F2DC10BD2DE9FE430446DDF828800E4689
:102A4000994615464B4615F8017B31463A462046D5
:102A5000CDF80080FFF7A6FE3A4602A901A800F0D3
:102A600047F89DF80400A0F23F1149428C4203DA76
:102A70002044401C84B20BE09DF808004FF0000495
:102A8000C0F5F071B14202D9304486B200E00026B0
:102A900028780028D6D1BDE8FE8300002038C0B2D7
:102AA000A0F14001602900DBC8B20849097819B1DA
:102AB000012906D006487047054900EB80009B3984
:102AC00002E00449C0EB00100844704718000020E1
:102AD00057A100085C9700080448007808B1012855
:102AE00001D0082070470F20704700001800002018
:102AF000203A30B5D2B2A2F14003602B00DBDAB24B
:102B0000074B1D78052308240DB1012D02D0037059
:102B10000C7030BD034B9A5C02700F20087030BD02
:102B200018000020BC9600082038C0B2A0F1400177
:102B3000602900DBC8B20649097809B1012901D032
:102B4000062070470349085C401CC0B27047000073
:102B500018000020BC96000801480078704700006B
:102B6000180000200021A0F100634FF4804293423E
:102B70003FD321490144914201D2082139E01F4944
:102B80000144914201D2102133E01D490144914298
:102B900001D218212DE01B490144B1F5803F01D23B
:102BA000202126E0184942184FF400318A4201D210
:102BB00028211EE0154A02448A4201D2302118E041
:102BC000134A02448A4201D2382112E0114A0244D7
:102BD0008A4201D240210CE00F4A02448A4201D2CB
:102BE000482106E00D4A1044884201D2502100E0FD
:102BF000582108467047000000C0FFF70080FFF72B
:102C00000040FFF70000FFF70000FEF70000FCF7B0
:102C10000000FAF70000F8F70000F6F70000F4F7FC
:102C200000B50246002304E0521CFFF77DFF184464
:102C300083B210780028F7D1184600BD014800780B
:102C40007047000094000020FEE700002DE9FC41E1
:102C50000121082000F058FE0121022000F054FE5E
:102C60000121084600F050FE01258DF80450002493
:102C700080208DF806400326184F00908DF80560DF
:102C80008DF8075069463846FFF7BCFA8021384670
:102C9000FFF720FB8DF8045068038DF80640009084
:102CA0008DF805608DF8074069463846FFF7AAFAA7
:102CB0008DF804508DF806408DF805608DF80740BA
:102CC000074C2F03009769462046FFF79BFA3946C9
:102CD0002046FFF7FFFABDE8FC810000000C02402F
:102CE0000004024070B5002405462146204600F04D
:102CF0007FFA2C20C1060880074808494FF6FF726A
:102D000000784FF4163320B10D80641C9C42FAD336
:102D100070BD561B0E80F8E71C000020000002600A
:102D20001CB50121182000F0EFFD0121084600F03C
:102D3000F7FD404C0C2200212046FFF7B4FA0C228C
:102D400001212046FFF7AFFA0C2204212046FFF7AD
:102D5000AAFA0C2205212046FFF7A5FA0C22082129
:102D60002046FFF7A0FA0C2209212046FFF79BFA24
:102D70000C220A212046FFF796FA0C220B2120464E
:102D8000FFF791FA0C220E212046FFF78CFA0C2255
:102D90000F212046FFF787FA4CF63370009002208F
:102DA0008DF8040003208DF8050000208DF8060042
:102DB00001208DF8070069462046FFF723FA1E4CD4
:102DC0000C2202212046FFF76EFA0C220721204632
:102DD000FFF769FA0C2208212046FFF764FA0C225B
:102DE00009212046FFF75FFA0C220A212046FFF74F
:102DF0005AFA0C220B212046FFF755FA0C221146F5
:102E00002046FFF750FA0C220D212046FFF74BFA1F
:102E10000C220E212046FFF746FA0C220F212046F5
:102E2000FFF741FA4FF68470009069462046FFF79D
:102E3000E9F91CBD000C0240001002404FF0C041F7
:102E40002120088070474FF0C04111200880704752
:102E50004FF0C0411020088070474FF0C041202043
:102E6000088070474FF0C04111200880704700B5BE
:102E700097B000201021CDE90201049009020090D2
:102E80000190CDE90801069007900A900FA90590DE
:102E90000F220B90CDE90C01CDE90F20CDE91120D7
:102EA0001390149015900E916846FEF7D1FB012106
:102EB0000020FEF7BDFB17B000BD0000F0B5059E79
:102EC000A6F59054343C42D04FF0C0452A242C80C3
:102ED000224CC0F300272780C7B227801044C0F3DC
:102EE00000272780C0B220802B202880C1F300203B
:102EF0002080C8B22080C818C0F300212180C0B251
:102F000020802C202880164900204FF6FF7C0F7867
:102F100009E0002103E0DFB12680491C89B291421B
:102F2000F9D9401C80B29842F3D92A202880002089
:102F300020802080012020803F2020802B2028809E
:102F400000202080208001202080DF202080F0BD14
:102F5000ACEB060EA4F800E0DFE700000000026022
:102F60001C00002010B504460B46B0F5A07F02D22D
:102F7000B3F5F07F01D3002010BD210A2A2000F014
:102F80007DF9E0B20A4C2080190A2B2000F076F976
:102F9000D8B220804FF0C0412E200880054800782C
:102FA00000282088E8D14FF6FF71081A10BD0000F4
:102FB000000002601C00002030B5134B9A881044BA
:102FC00000B2002801DA084403E04A1E904201DD05
:102FD000401A00B23322540722800C4A0025158083
:102FE0001580C1F300251580491CC9B2118000214C
:102FF0001180118037212180C0F300211180C1B2DE
:103000001180586080B230BD1C00002000000260BA
:103010000148808880B270471C0000200B4910B521
:1030200000224A6033214B07198009490A800A802F
:10303000C0F300240C80401CC0B208800A800A80C3
:10304000372018800A800A8010BD00001C00002074
:103050000000026001490020087070471C00002039
:1030600001490120087070471C00002010B5FFF7CF
:10307000EDFD494CFFF754FE641EFDD2FFF7F7FE4D
:103080004FF0C04401202080642000F0FFF81120A0
:103090002080132020804FF4967000F0F7F8D020A5
:1030A00020803E4807210180412101801D210180AF
:1030B000D1212180002101801C2101801F2101805C
:1030C000D22121800121018011210180C021218094
:1030D000002101803B21018000210180022101802B
:1030E00011210180C1212180102101800B2101804B
:1030F00088210180C521218001210180C8212180F2
:10310000018000210180302101803621018045218C
:103110000180042101801621018037210180752161
:10312000018077210180542101800F210180E42159
:103130002180A0210180F021218001210180F32143
:103140002180402101800A210180F72121808021F6
:103150000180362121800A2101803A2121805521D8
:1031600001802A212180002101800180012101802C
:103170003F2101802B21218000210180018001213C
:103180000180DF210180782000F080F82920208054
:103190002C20208010BD0000FFFF1F0000000260F7
:1031A0004FF480510148FFF795B800000004024039
:1031B0004FF480510148FFF78FB80000000402402F
:1031C0004FF0C0412820088070474FF0C0412920AF
:1031D00008807047014800887047000000000260C6
:1031E0004FF0C0410880014800887047000002602D
:1031F00010B50B460446010A2A2000F03FF8E0B261
:10320000044C2080190A2B2000F038F8D8B2208016
:1032100010BD00000000026030B503460C461546A4
:10322000B0F5A07F16D2B4F5F07F13D2190A2A2088
:1032300000F024F8D8B20A4B1880210A2B2000F0A5
:103240001DF8E0B218802C20C106088005480078DF
:1032500008B11D8030BD4FF6FF70401B188030BD97
:10326000000002601C000020014908807047000037
:10327000000002604FF0C041088070474FF0C0422C
:10328000108001480180704700000260002240F277
:10329000754306E00021491C89B29942FBD3521CB8
:1032A00092B28242F6D370472DE9F0430024ADB0CC
:1032B0002646132252A1564805F02AF830B10023C1
:1032C000012254A156A000F06BF95BE02BAB7822F1
:1032D0000DA94F4805F00DFA5A4F00200546C7E9E1
:1032E0000000C7E90200C7E90400C7E90600C7E912
:1032F0000800C7E90A00C7E90C00E9460DF13408E7
:1033000005E00A2842D009F80400641C6D1C2B98C3
:10331000854203DA18F805000028F2D13C4804F091
:1033200075FBD7E9000100221346FDF785F929D086
:10333000D7E9020100221346FDF77EF922D0D7E932
:10334000040100221346FDF777F91BD0D7E90601E7
:1033500000221346FDF770F914D0D7E908010022C6
:103360001346FDF769F90DD0D7E90A01002213468B
:10337000FDF762F906D0D7E90C0100221346FDF7EC
:103380005BF93AD100202DB0BDE8F083002109F8A7
:1033900004100C46072E2ED2DFE806F0040A1016A1
:1033A0001C222800684603F024FDC7E9000122E042
:1033B000684603F01EFDC7E902011CE0684603F001
:1033C00018FDC7E9040116E0684603F012FDC7E9DD
:1033D000060110E0684603F00CFDC7E908010AE0A9
:1033E000684603F006FDC7E90A0104E0684603F0F9
:1033F00000FDC7E90C01761C88E70120C3E7000047
:1034000053455454494E47532E74787400000000BD
:10341000D40500205344204572726F7200000000F2
:10342000233E205344202D204572726F72204F702E
:10343000656E2053657474696E67732046696C65A8
:103440003B0A000010230020FEE7000001484078FE
:1034500070470000580000200148007870470000C5
:10346000580000202DE9F84FDFF8F0800F46A8F152
:103470000604834698F80000A1784FF0010A4FF047
:1034800000094EF23C7546F22C3652B1ABF1BE0249
:103490002C2A46D8F82F44DBB7F5887F41DC41B3AE
:1034A00031E0C1B184F801A04F4684F8029018E0E1
:1034B0002BA2F821BE2002F0B6F80097607800B980
:1034C00035462B4627A2F821F02002F0ACF8BDE8E3
:1034D000F84F00F04BB8E178002930D0022161703C
:1034E0004F46E7704446009708B12B46E0E7334665
:1034F000DEE7514618E02B4600E0334618A2F821DB
:10350000BE2002F090F8ABF1F000442819D8F82F53
:1035100017DBB7F5887F14DCE07800280FD1504620
:1035200013E00029EFD04946A17000910028E4D0B3
:10353000E1E72B460BA2F821F02002F074F8BDE879
:10354000F88FE0780028FAD04846E070009098F8AC
:1035500001000028EDD13546EBE700005E000020B9
:103560004F4B000043616E63656C000010B5B424DE
:10357000E010C002A11040EA411040EAE40080B22D
:10358000FFF7B0FB641FF3D501490020087010BDA0
:103590005800002001490020487070475800002062
:1035A00010B5084CC4E90210A11D0A704B70FCF75D
:1035B00039FE2071A068FCF735FE6071BDE810404F
:1035C00000F002B8580000202DE9F84FDFF8B8B13C
:1035D0004FF4A07600249BF805104FF4C877A1EBB8
:1035E000810106EB410101EBD1714FEA61099BF8C2
:1035F0000410A1EB810106EB410101EBD1714FEA0F
:10360000610A01218BF80010E010C002A11040EA0D
:10361000411040EAE40085B20021502332460846BA
:103620000095FFF74BFC50233246394600200095A9
:10363000FFF744FCA41C8C2CE6DD012448F67147FE
:10364000A1B25023324600200097FFF737FCC4F5A3
:10365000C87081B25023324600200097FFF72EFC3D
:1036600004F12D00C110C902821041EA421141EA61
:10367000E00085B2601E83B281B232460020009520
:10368000FFF71FF8A4F2E110404283B281B2324644
:1036900000200095FFF715F8641CC82CD0DD8C24A1
:1036A000254601E0E62C0ADA641CE110C902A210EA
:1036B00004F1140041EA421848EAE00087B2B42D50
:1036C00000DA6D1C14233246C82100200097FFF752
:1036D000F5FBE810C002A91040EA411040EAE500FD
:1036E00080B200903C233246DC210020FFF7E6FB4D
:1036F000E62CD7DBB42DD5DB0027DC233246194678
:1037000038460097FEF7DDFFE010C002A11040EA46
:10371000411104F1140041EAE00080B200901FFA68
:1037200089F000235E46CE21DBF80820FFF782F9FE
:10373000E810C002A91040EA411040EAE505A8B22D
:1037400000901FFA8AF00023E621F268FFF772F971
:103750000D4E0097B61D307810B148EAE40300E042
:103760002B460AA2F821BE2001F05DFF0097707879
:1037700010B148EAE40300E02B4605A2F821F0204E
:1037800001F051FFBDE8F88F580000204F4B0000BA
:1037900043616E63656C00007047000070B50F21D7
:1037A000C478027801234FF0E026E4B1124C24687B
:1037B00004F4E064C4F5E064C4F30724C4F1040530
:1037C000E1404478AC4085780D4025430B4C2901FD
:1037D0001155007800F01F018B40400906EB800076
:1037E000C0F8003170BD02F01F008340500906EBA5
:1037F0008000C0F8803170BD0CED00E000E400E016
:103800000249084302490860704700000000FA05B9
:103810000CED00E0024A114001430248016070478C
:1038200080FFFF1F08ED00E00149086270470000BB
:1038300000000E4210B510210448FEF744FD002898
:1038400003D0BDE8104001F093BD10BD0010024050
:1038500002490A6842EA8000086070470070004030
:103860000748016841F004010160016841F002016C
:1038700001600448016841F00401016030BF7047F5
:103880000070004010ED00E0034A0146002052683D
:103890000A4200D0012070470070004010B5FFF7C9
:1038A000D7FA012000F028F8BDE81040FFF7D8BF94
:1038B00010B50121880300F057F802F0A7FF02F0CD
:1038C000D9FF0121080700F037F80120FFF7ACFF0E
:1038D0000120FFF7BDFF0220FFF7D6FF20B1BDE8B2
:1038E00010400220FFF7B4BF012000F055F8BDE8FA
:1038F0001040002000F050B80149086070470000F7
:10390000A0000E4270470000044A0029116801D04F
:10391000014300E0814311607047000030380240ED
:10392000044A0029116801D0014300E0814311607D
:103930007047000038380240044A0029116801D05D
:10394000014300E0814311607047000040380240AD
:10395000044A0029116801D0014300E0814311604D
:103960007047000020380240044A0029116801D045
:10397000014300E081431160704700004438024079
:10398000044A0029116801D0014300E0814311601D
:103990007047000024380240014908607047000069
:1039A000400E474202460020510901290BD002294E
:1039B0000CD00849096802F01F02012393400B4212
:1039C00000D00120704703497439F3E70149091F0A
:1039D000F0E7000074380240054900220A700A70BE
:1039E000012802D0042801D105200870704700008A
:1039F0007038024001490860704700003C0E4742A1
:103A0000C0F30121032907D1074A116821F4F813F3
:103A10000649014019431160034968310A68C0F33F
:103A20000B0002430A60704708380240FFFCFF0F9A
:103A300070B5194C0221204601F01AFA0028F9D07D
:103A40000021204601F01DFA0121204601F010FA64
:103A50000028F9D0204601F012FA4FF6FF7101EA72
:103A600000250120FDF7A1FB0221204601F000FA0C
:103A70000028F9D00021204601F003FA0121204658
:103A800001F0F6F90028F9D0204601F0F8F90543D5
:103A9000C5F3CB0070BD000000380040010901EB08
:103AA000810100F00F0000EB4100C0B2704700211F
:103AB00003E0491C0A38C9B2C0B20A28F9D2090782
:103AC00040EA11607047000080B240F08000C143BE
:103AD0000348026802F08002114301607047000051
:103AE0000C28004010B501210807FFF725FF012031
:103AF000FFF79AFE0120FFF76FFF4120FFF752FF0B
:103B00000028FAD04FF48070FFF77AFF0548FF21B4
:103B100041607F2101600120FFF76CFFBDE810408C
:103B200000F040B9A40000200B48002102685206B2
:103B30000FD44A1E026083130268491C02F040023F
:103B4000994201D0002AF7D00068400601D4002035
:103B500070470120704700000C28004002480168AF
:103B600021F08001016070470C28004010B50C4620
:103B70000F4909680F4A1140C1F305422270C1F391
:103B80000623637001F07F0301F48001090CA37028
:103B9000E17000280BD11046FFF780FF207060789D
:103BA000FFF77CFF6070A078FFF778FFA07010BD72
:103BB000002800407F7F7F0070B5124D044600262C
:103BC000CA20286053202860FFF7AEFFA8B10D4837
:103BD0001C38016821F0400101600168226811432E
:103BE00001600848A168143801600168A28841EAB0
:103BF00002410160FFF7B2FF0126FF202860304636
:103C000070BD000024280040014951F82000704791
:103C10005028004070B5244A0C4603004FF00006BF
:103C20000978126830464FEA426205D0002A2EDA3F
:103C30000846FFF733FF2BE0002A00DBE070084660
:103C4000FFF735FF05046078FFF731FF45EA0025EF
:103C5000A078FFF72CFF0543E07845EA0045124CB9
:103C6000CA201C34206053202060FFF75DFF50B154
:103C70000E4805400C4808380560FFF76FFF00F05C
:103C800091F800B10126FF202060304670BDE07041
:103C9000A078217840EA01456078E178000240EAA6
:103CA00001400543DBE70000082800407F7F7F00DC
:103CB00010B50D4B0024DC70187059709A701946BD
:103CC0002046FFF7A7FF30B1BDE8104043F2F221D4
:103CD000002000F089B80023BDE81040012203A1B4
:103CE00005A0FFF75DBC0000AC000020525443204B
:103CF0004572726F720000005365742054696D65DF
:103D0000206661696C65640010B50020FFF77CFFD8
:103D1000A0F54851F23919D0FFF7E4FE16490A68B8
:103D2000164842604968816000210160FFF744FF46
:103D300028B90023012212A114A0FFF731FC0022B0
:103D4000BDE8104011461046FFF7B2BF7B20FFF7D9
:103D500029FE10B97A20FFF725FE01210807FFF799
:103D6000EBFD0120FFF760FD00F01CF8BDE81040FE
:103D70004FF48070FFF7A8BEA40000205423002059
:103D8000525443204572726F720000005072657386
:103D900063616C657220436F6E6669672066616956
:103DA0006C6564000F4A10B50020CA2111605321D0
:103DB00011600C4918390B6823F0A0030B604FF415
:103DC00000340B68401C03F02003A04201D0002BFC
:103DD000F7D00868800601D5012000E00020FF210F
:103DE000116010BD24280040014A42F8201070479D
:103DF00050280040F0B595B0002448216846FCF7F3
:103E0000F8F9474E6D4613A912A801F0F2F912987D
:103E100045F8240005EB840113984862641CE4B261
:103E200020213046FEF74FFA08B9092CEBD3092CB4
:103E300073D1DDE90001084402990324084490FB92
:103E4000F4F5DDE9030108440599084490FBF4F713
:103E5000DDE9060108440899084490FBF4F6E81BE4
:103E6000BA1B711B002800DC4042002A00DC5242D1
:103E7000002900DC4942022803DD022A01DD022973
:103E80004BDC284B904205DA814201DAA81904E0A4
:103E9000E81902E09142F9DBB81900EBD070C0F3E9
:103EA0004F001880DDE9090108440B99084490FB94
:103EB000F4F5DDE90C0108440E99084490FBF4F692
:103EC000DDE90F0108441199084490FBF4F4A81BA4
:103ED000311B621B002800DC4042002900DC494203
:103EE000002A00DC5242022803DD022901DD022AF9
:103EF00013DC884205DA824201DA281904E0A819A5
:103F000002E08A42F9DB301900EBD070C0F34F00B9
:103F10005880044815B0F0BDFFE70020FAE7000024
:103F2000000802408000002070B50B4D102128468B
:103F3000FEF7D0F90120FDF738F9A42002F0CCFA01
:103F40000120FDF732F9FFF773FD044610212846E2
:103F5000FEF7C2F9204670BD0008024070B50B4D57
:103F600010212846FEF7B6F90120FDF71EF9902032
:103F700002F0B2FA0120FDF718F9FFF759FD0446E7
:103F800010212846FEF7A8F9204670BD000802401F
:103F900070B50B4D10212846FEF79CF90120FDF766
:103FA00004F9D02002F098FA0120FDF7FEF8FFF79F
:103FB0003FFD044610212846FEF78EF9204670BDCD
:103FC000000802402DE9FC47002580460095284660
:103FD000019500F0A9F8800102D50E20BDE8FC870C
:103FE000264F6946388980B2FDF792FB0028F5D14B
:103FF0003720234C402601994FF0060A4FF4806980
:10400000B8F1010F1FD0C90335D53989C4F8109014
:104010000904C4E90010C4E90265204600F0B4F8C0
:104020003720FCF7F7FE0028D8D1C4E9005AC4F8BD
:10403000109000BFC4E90265114800F0A5F8062001
:10404000FCF7E8FECAE7490315D53989C4F8109092
:104050000904C4E90010C4E90265094800F094F8B5
:104060003720FCF7D7FE0028B8D10220C4F8109002
:10407000C4E9000ADEE72520B0E7000024000020A4
:10408000580100200149086070470000382C0140A9
:104090000149086070470000382C01400149086060
:1040A00070470000A0802542014908607047000069
:1040B0008C85254210B50A4A01681160121D4168BD
:1040C0001160121D116821F0F703D0E90214214399
:1040D000D0E90440044321431943116010BD00009E
:1040E000242C014001480068C0B27047102C0140E8
:1040F000034A0146002012680A4200D0012070479E
:10410000342C0140034A0146002012680A4200D0C4
:1041100001207047342C01400248006800F0030081
:1041200070470000002C01400149405870470000D2
:10413000142C014000F07CBC044A0029116801D015
:10414000014300E081431160704700003C2C0140B6
:1041500030B5094B1A6847F6FF618A43017D8468D0
:10416000C568214344682C43214304680069214306
:1041700001431143196030BD042C0140014800681F
:1041800070470000802C014010B5084A016811609A
:10419000121D1168CB0AD0E901142143D0E9034074
:1041A0000443DB0221431943116010BD082C014078
:1041B0000149086070470000002C014010B501243F
:1041C00061030348FEF77FF800B10024204610BDCC
:1041D000001C02402DE9F0410146194800264068C4
:1041E000032813D018B1012801D0022825D1B1F538
:1041F000805F0BD04FF400670025124CB9420ED1FE
:104200000120FFF7DFFE060003D016E02720BDE8FF
:10421000F081257525606560C4E9025709E000203A
:10422000FFF7D0FE060008D1257525606560A56002
:10423000E56004482561FFF78BFF3046E7E70000A3
:1042400024000020400100202DE9F0439349DFF8CD
:104250005092D1F804C080F856C00989A0F85410D3
:10426000D9F800100A0E94090470C2F38304447054
:1042700002F0030282700A0CC2700A0A02714171D4
:10428000D9F80470390E0901C180C288C7F307410B
:1042900042EA1112C28001F00F010172C7F3072236
:1042A000D1094172C2F380118172C2F34011C1720F
:1042B000C2F300110173002141734B469D68012335
:1042C0002E0EC5F30744C5F30728BCF1000F06D036
:1042D000BCF1010F03D0BCF1020F3BD04DE09207BF
:1042E000120D0261FAB2076947EA820202610269AD
:1042F00042EA96120261C6F3C202027506F0070294
:10430000427562098275C4F38202C275A207520F18
:104310000276047E424644EAD21404760469077E9B
:10432000641CBF1C03FA07F6A4FB06784FEAE67C80
:1043300001FB068604FB0C6690F808C003FA0CF437
:10434000A7FB04C8046506FB048407FB0144C0E91D
:1043500012C412E0BA06920A0261026942EA062217
:10436000026102692243026104694246641CE4045A
:10437000C0E912414FF400740465C2F3801444761E
:104380009206520E8276EAB2857E45EAD21585768D
:1043900002F07F02C276D9F80C40220ED5090577CB
:1043A000C2F341154577C2F3820585779207120F54
:1043B000C277C57FC4F3074245EA9215C577C2F3B9
:1043C000401500F8205F417002F001028270C4F3D2
:1043D0000722D509C570C2F380150571C2F34015D7
:1043E0004571C2F300158571C2F38105C57102F0F4
:1043F00003020272C4F3460242728372284C1034E4
:104400002268150E0573C2F307452D02C581C689C2
:10441000C2F307252E43C68112060261626806694F
:10442000150E46EA054505610669C2F3074546EAE9
:10443000052505610669C2F307252E43066102754D
:10444000A268150E4575C2F307452D06856186697C
:10445000C2F3072546EA054585618569D2B245EA7A
:1044600002228261E268856945EA12658561057FFD
:10447000C2F3074445EA141505772407240DC483C5
:10448000C58BC2F307242543C583C2F3460280F8D7
:10449000202080F821300846BDE8F0832400002069
:1044A000B800002008B500200090FFF787FE012823
:1044B00003D1684600F078FB08B1FF2008BD0098E2
:1044C000C0F3432008BD10B5FFF7ECFF042803D06C
:1044D000FF2803D0012010BD002010BD022010BD18
:1044E00010B500F033F900F0ADF9002822D100F04A
:1044F00025F800281ED110490875086048608860BA
:10450000C86008610846FFF723FE0B485838FFF7DC
:104510009BFE00280ED108485838B0F8540000041B
:1045200000F02CFB002805D1BDE810404FF40060DE
:10453000FFF750BE10BD0000400100202DE9F84FEC
:1045400001200025ADF80000FFF7E6FDA8B3DFF875
:10455000E490D9F80400042869D0374C4FF0C00A21
:1045600000260220C4F808A0C4E900604FF4806867
:10457000C4E903682046FFF707FEFCF7C1FC05000D
:104580001DD1FFF7D1FDA4F1900738600420FFF79B
:10459000CBFD78600820FFF7C7FDB8600C20FFF75F
:1045A000C3FDF860D9F804004F4650B1012808D087
:1045B000062806D0022804D014E0FFE72520BDE835
:1045C000F88F0320C4E9006004F108014020A1E84D
:1045D00041011948FFF7D8FD69460320FCF7ACFC00
:1045E0000500ECD17868042821D0BDF80000B8603F
:1045F000000420600920C4E9010AC4E903680E48E8
:10460000FFF7C2FDFCF77CFC0500D8D1FFF78CFD5D
:10461000094CA03C20600420FFF786FD6060082064
:10462000FFF782FDA0600C20FFF77EFDE0602846CA
:10463000C5E70000240000205801002030B51F4DC0
:1046400004468FB04FF0FA512846FCF7B1FC002128
:104650002846FCF7C3FC2846FCF7CAFC4FF0006074
:1046600000901748CDE9010400200390291504901B
:10467000CDE90501890007918900CDE908104FF4C3
:1046800040300A9004200B9003200C9048020D90BB
:1046900080100E9069462846FCF75CFD012210212F
:1046A0002846FCF741FD20212846FCF733FD012177
:1046B0002846FCF793FC0FB030BD00005864024060
:1046C000802C014030B51F4D04468FB04FF0FA5199
:1046D0002846FCF76DFC00212846FCF77FFC2846A5
:1046E000FCF786FC4FF0006000901748CDE901040C
:1046F00040200390002029150490CDE90501890090
:1047000007918900CDE908104FF440300A90042049
:104710000B9003200C9048020D9080100E9069467B
:104720002846FCF717FD012210212846FCF7FCFC67
:1047300020212846FCF7EEFC01212846FCF74EFC20
:104740000FB030BD58640240802C01402DE9FC417F
:1047500001218C20FFF7D8F8294E0C220821304681
:10476000FDF7A1FD0C2209213046FDF79CFD0C222E
:104770000A213046FDF797FD0C220B213046FDF74C
:1047800092FD0C2211463046FDF78DFD1D4F0C2287
:1047900002213846FDF787FD4FF470600124009038
:1047A0008DF8054002208DF8040000258DF8065094
:1047B0008DF8074069463046FDF724FD042000903F
:1047C00069463846FDF71EFD200300908DF807501E
:1047D00069463046FDF716FD600300908DF80450E1
:1047E0008DF8074069460848FDF70CFD0121C80215
:1047F000FFF7BAF801218805FFF786F8BDE8FC81CC
:1048000000080240000C0240001C024038B54FF482
:10481000C060FEF7F5FF31208DF8000000248DF810
:1048200001408DF8024001208DF803006846FEF734
:10483000B5FF3B208DF800008DF801406846FEF77B
:10484000ADFF38BD2DE9F05F4FF0000A6A487621D0
:1048500056460175C0F800A0C0F804A0C0F808A032
:10486000C0F80CA057465446C0F810A0FFF770FCE3
:104870000320FFF79DFC0120FFF710FCDFF8788193
:104880004FF4806108F118084046C8F80040C8F8A5
:104890000440C8F80840C8E90341FFF775FC4FF42D
:1048A000803B5D4601E06D1E1FD08020FFF720FC9D
:1048B0000028F8D0CDB140F2FF50FFF7E3FB4FF4F2
:1048C000D5704546C8F8000008204FF04009C5E9FA
:1048D00001094FF480684848C5E903481830FFF7DC
:1048E00053FC464A5846116806E00320BDE8F09F95
:1048F0004249A0F10100096811F0450F14D008B138
:10490000480714D50420FFF7BDFB3720C5F80890F1
:10491000C5E900403848C5E903481830FFF734FCC2
:104920003720FCF777FA0BE00028E1D1EAE74806E8
:1049300002D54020FFF7A6FB314801218F074160D7
:104940000021372285E806022B48C5E90318AB464B
:104950001830FFF719FC3720FCF75CFA04003AD056
:1049600047E000BF4FF0000A504637218BE80302B2
:104970005C462148C4E903A81830FFF705FC37203E
:10498000FCF748FA0028B1D11E4838432060C4F82B
:104990001080241D2920A4E8010617481830FFF7CD
:1049A000F3FB164A0024106810F0450FFBD04007B7
:1049B00004D503240420FFF765FB1AE040F2FF5002
:1049C000FFF760FB0020FFF7AFFB8246C00F06F148
:1049D000010602D003E04FF6FF75AE42C2D3AE42ED
:1049E00001D31B2082E71AF0804F02D00448022135
:1049F000416020467AE7000040010020342C01404D
:104A000024000020000010800748006810F0C05FFC
:104A100008D006490120486103484FF0C251583080
:104A2000FCF7C6BA70470000006402402400002072
:104A300070B54FF480752846FFF764FB1F4C38B102
:104A4000002020702846FFF723FB012020612EE084
:104A50000220FFF757FB20B10220FFF719FB0220CD
:104A600024E00820FFF74EFB20B10820FFF710FBE1
:104A700004201BE02020FFF745FB20B12020FFF79A
:104A800007FB062012E01020FFF73CFB20B11020AE
:104A9000FFF7FEFA052009E04FF400752846FFF7FE
:104AA00031FB20B12846FFF7F3FA072020700021E0
:104AB0004CF23A30FFF740FB207870BD2400002014
:104AC0002DE9FF5F2A480025164698460F460570D7
:104AD00005614FF00109C0F80C9026490D6040684F
:104AE000022801D106027F0A234C4FF4806B10206C
:104AF000C4F810B0C4E900604FF0400AC4E902A550
:104B00002046FFF741FB1020FCF784F900282CD148
:104B1000411E04F1140008FB06F8C0E900189021BA
:104B200081600C300221A0E8220204F11400FFF79A
:104B3000C1FA1220C4F810B0C4E90070C4E902A59B
:104B40002046FFF721FB1220FCF764F904000CD18A
:104B5000012140F22A30FFF7EFFA0120FFF7A4FA13
:104B600041460098FFF76AFD204604B0BDE8F09F7B
:104B7000240000202C2C014058010020094910B5C8
:104B8000086007204860402088600020C8604FF41B
:104B9000806008610846FFF7F7FABDE8104007207B
:104BA000FCF738B95801002070B504001AD00E483F
:104BB0000E490089000408600D204860402088608C
:104BC0000020C8604FF4806008610846FFF7DCFAF7
:104BD0000D20FCF71FF9050003D1FFF7A5FA2060AF
:104BE000284670BD262070BD2400002058010020FA
:104BF000084810B500210C22C0E900124022C0E98B
:104C0000022111010161FFF7BFFABDE810400C203D
:104C1000FCF700B9580100202DE9F0410026751E6F
:104C20002846164C02E000BFA0F10100616929B9D5
:104C3000216919B9217809B90028F5D100276761E0
:104C40000F4801E0A5F101050168890401D5002D97
:104C5000F8D1E068012803D1FFF7CAFF0646E760F4
:104C6000354300D1042640F2FF50FFF70BFA2078BD
:104C700010B12078BDE8F0813046FBE72400002029
:104C8000342C01402DE9F0410026751E2846164CB3
:104C900002E000BFA0F10100616929B9216919B9D9
:104CA000217809B90028F5D1002767610F4801E094
:104CB000A5F101050168C90401D5002DF8D1E0680E
:104CC000012803D1FFF794FF0646E760354300D182
:104CD000042640F2FF50FFF7D5F9207810B1207874
:104CE000BDE8F0813046FBE724000020342C014071
:104CF0002DE9FF5FDFF80481002416461D460F46AC
:104D000088F80040C8F810400121C8F80C103C4950
:104D10000C60D8F80400022801D106027F0ADFF8EF
:104D2000E490102148464FF0400AC0E90061C9E90B
:104D300002A44FF4806BC9F810B0FFF725FA1020D9
:104D4000FCF768F8002856D1B8F80800C8460104F6
:104D50004846C9F800103721C0E9011A0021C16096
:104D6000D1462848C8F810B0FFF70EFA3720FCF7F4
:104D700051F800283FD14446C8F808901720C4E9EC
:104D800000504FF00008C4E9038BCA46D9461D48BD
:104D9000FFF7FAF91720FCF73DF800282BD119206E
:104DA000C4F808A0C4E900704746C4E9038915485F
:104DB000FFF7EAF91920FCF72DF800281BD1114A5A
:104DC000401E14327543C2E900059020C2E9020773
:104DD0000120C2E904701046FFF76CF9012140F28E
:104DE0002A30FFF7A9F90120FFF75EF9294600985C
:104DF000FFF768FC384604B0BDE8F09F24000020AF
:104E00002C2C0140580100200029018802D041F0DB
:104E1000400101E021F0400101807047114910B5C7
:104E200088420AD1841401212046FEF7A9FD2046BC
:104E3000BDE810400021FEF7A3BD0B49884202D116
:104E40000121041404E0094988420AD10121C41354
:104E50002046FEF77DFD2046BDE810400021FEF70C
:104E600077BD10BD0030014000380040003C0040DC
:104E70000246002012890A4200D001207047808932
:104E800070478181704730B502884C8802F44153E5
:104E90000A88CD8822438C882C4322430C892243E4
:104EA0004C8922438C892243CC8922431A430280B5
:104EB000828B22F400628283098A018230BD7047AE
:104EC00010B58A0721F003040649130F21440F226D
:104ED0000C689A4094430C600A68984002430A6048
:104EE00010BD0000083801402DE9F04113225EA1F9
:104EF000614803F00DFA00B1FEE7604CD4E90051BF
:104F00000F462846FBF760FB0646FBF73FFB2A46A9
:104F10003B46FBF757FA5A4F00223B46FBF755FA40
:104F2000FBF752FB0346324656A1534803F0BDFA45
:104F3000D4E902510E462846FBF746FB8046FBF7B4
:104F400025FB2A463346FBF73DFA00223B46FBF79A
:104F50003CFAFBF739FB034642464AA1464803F0B8
:104F6000A4FAD4E9045628463146FBF72DFB8046C7
:104F7000FBF70CFB2A463346FBF724FA00223B469C
:104F8000FBF723FAFBF720FB034642463DA13A48D4
:104F900003F08BFAD4E906510E462846FBF714FBC2
:104FA0008046FBF7F3FA33462A46FBF70BFA00225A
:104FB0003B46FBF70AFAFBF707FB0346424631A1E3
:104FC0002D4803F072FAD4E9085628463146FBF71B
:104FD000FBFA8046FBF7DAFA2A463346FBF7F2F98A
:104FE00000223B46FBF7F1F9FBF7EEFA0346424697
:104FF00024A1214803F059FAD4E90A510E46284663
:10500000FBF7E2FA8046FBF7C1FA33462A46FBF784
:10501000D9F900223B46FBF7D8F9FBF7D5FA03464E
:10502000424618A1144803F040FAD4E90C510C464A
:105030002846FBF7C9FA0646FBF7A8FA2A46234694
:10504000FBF7C0F900223B46FBF7BFF9FBF7BCFAC0
:10505000034632460BA1084803F027FABDE8F041A9
:10506000054802F0D3BC000053455454494E475301
:105070002E74787400000000D40500201023002056
:105080000088C34025642E25640A0000022801D24E
:1050900001490870704700001800002022490020D4
:1050A0000A6842F480320A604FF4A0630A6800F193
:1050B000010012F4003F01D19842F7D10868800343
:1050C00031D519484030026842F0805202601748DA
:1050D000026842F4804202601348083002680260AD
:1050E000026842F400420260026842F4A052026088
:1050F000031F0F4A1A600A6842F080720A600A6849
:105100009201FCD50B4A40F205611160016821F063
:1051100003010160016841F0020101600168C1F30F
:1051200081010229FAD17047003802400070004026
:1051300008544007003C024010B50B4C2068411C4D
:105140002160B0F57A7F0EDD20210848FDF7BBF81D
:1051500030B18C2140F21710FCF734F8002001E048
:105160004FF44870206010BD00000020000802408D
:105170000F4810B5016841F0010101600C4A00219F
:105180000832116002680B4B1A400260031D0A4A84
:105190001A60026822F48022026005480C30016027
:1051A000FFF77CFF05494FF00060086010BD00006C
:1051B00000380240FFFFF6FE1030002408ED00E04A
:1051C00070B506460C461F22FEF726F8751CA8B2DD
:1051D0001F222146FEF720F8641CA1B21F22304690
:1051E000FEF71AF8A1B2A8B2BDE870401F22FEF780
:1051F00013B870B50D460646FEF7B0FE0446012012
:10520000FBF7D3FFFEF7C4FE3460286070BD0000DA
:105210002DE9F04387B001210220FEF775FB012143
:105220000420FEF771FB4FF4804801214046FEF751
:1052300083FB404F05220D213846FDF734F8052247
:105240000E213846FDF72FF805220F213846FDF7CD
:105250002AF84FF40050009002208DF80400032635
:105260008DF8056000248DF8064001258DF8075063
:1052700069463846FCF7C6FF69463846CDF80080D7
:10528000FCF7C0FFE803009069463846FCF7BAFF18
:105290008DF8045010208DF80640DFF89C900090A7
:1052A0008DF805608DF8075069464846FCF7AAFF5F
:1052B0008DF804408DF8064020278DF80560009792
:1052C0008DF8075069464846FCF79CFF1021484678
:1052D000FDF702F801214046FEF72EFB174D284648
:1052E000FFF79CFDADF808404FF48270ADF80A005E
:1052F000ADF810406815ADF812000720ADF80C406D
:10530000ADF81470ADF81800ADF80E40ADF81640C9
:1053100002A92846FFF7B7FD01212846FFF774FDD3
:10532000FDF7C2FF002801D100F022F807B0BDE868
:10533000F0830000000402400008024000380040F2
:1053400010B50A4C10212046FCF7C4FF0120FBF7E2
:105350002CFF802001F0C0F80120FBF726FF20463B
:10536000BDE810401021FCF7B7BF00000008024064
:105370002DE9F8430024A0464FF496774FF6FF76C8
:1053800000252846FDF7AEFC33461DA20A212C203D
:10539000CDF80080FDF74EFB00200021491C89B2AA
:1053A000B142FBD3401C80B2B842F6D31C4800EB9C
:1053B000840130F824004988FBF7BEFFFEF71AFD90
:1053C00018B1FEF717FD0546F8E7002DF6D0154891
:1053D000298820F8241000EB8400641C6988E4B25A
:1053E0004180032CCCD30F4A0E49383A0C4804F0C4
:1053F00013F80020FDF776FCBDE8F843FFF774BD15
:10540000546F7563682063726F737368616972208B
:10541000746F2063616C69627261746500000000E2
:105420008400002048230020FEE700002DE9FE4F05
:105430001D4C88461D4E2178DDF830A001EB81011E
:10544000814626F8210006EB81011D461746A1F88A
:1054500002801046FDF7E4FB203083B2207818214B
:1054600000EB800006EB800000228380C180876013
:105470000273C581C0F810A00091CDE901523A46EF
:105480004146484600F072F82078401CC0B22070B7
:10549000462807D30023012205A108A0FEF780F8C3
:1054A00045202070BDE8FE8F45000020F80900204F
:1054B000466174616C204572726F7200427574743B
:1054C0006F6E7320636F756E74206F766572666C95
:1054D0006F770000FEB5174DDDE9097C2C78164E7C
:1054E00004EB8404DDF820E026F8240006EB8404B5
:1054F0009BB261801FFA8EF6A380E6804FF0000E0B
:10550000A26084F80CE0E781C4F810C08DE8C040C8
:1055100000F02CF82878401CC0B22870462807D329
:105520000023012205A108A0FEF73AF845202870C3
:10553000FEBD000045000020F809002046617461AE
:105540006C204572726F7200427574746F6E7320B6
:10555000636F756E74206F766572666C6F7700008E
:105560000149002008707047450000202DE9F84FE0
:105570008346DDE90A47107800260C9D984692463E
:1055800089465C283ED00DB1002000E038460090EE
:10559000234642465846FDF726F80DB1384601E04D
:1055A0004FF2BE7000902346424649465846FDF7EA
:1055B00093F90120FFF76AFDFDF78EFA04EBD47230
:1055C00009EB6201A1EB50001FFA80F944465046F6
:1055D000FDF726FB04EBD4720BEB6201A1EB50004C
:1055E00080B21DB14FF6FF73009602E0BEB20023F9
:1055F000009652464946FDF71DFABDE8F84F0020D7
:10560000FFF744BD0A46594650460094FCF768FF30
:10561000002D06D023464246494658460096FDF7DF
:105620002DF9BDE8F88F2DE9F84307461E4691464F
:105630000C461046089DFDF7F3FA00F120020DB16B
:10564000002000E030460090182321463846FCF741
:10565000CAFF0120FFF71AFD4846FDF7E1FA07EB04
:1056600050000D3080B24FF6FF781DB10021434647
:10567000009102E0B1B200230091611D89B24A4657
:10568000FDF7D8F90020FFF701FD4846FDF7C8FAFD
:1056900000F12002182321463846CDF80080FDF79E
:1056A0001BF9BDE8F88300002DE9F041074600240E
:1056B0000E4E0F4D0EE000BF04EB840006EB8000A1
:1056C00039468068FAF7B6FD10B12046BDE8F08192
:1056D000641CE4B228788442EED30023012205A1A1
:1056E00008A0FDF75DFF0020F0E70000F8090020AA
:1056F0004500002050726F6772616D204572726FB5
:105700007200000046756374696F6E3A20427574CA
:10571000746F6E2047657420436F6E74726F6C20D7
:105720002D20427574746F6E206E6F7420657869D9
:105730007374210010B50023012204A10748FDF76E
:105740002FFF07480078401EC0B210BD50726F672F
:1057500072616D204572726F7200000068A90008C6
:10576000450000202DE9F74F002484B09146824681
:10577000A0462F4D2F4F54E0B9F1000F27D004EB76
:10578000840135F82100504538DA05EB8106B288EE
:1057900083189646534531DD7388059A9B4693429C
:1057A0002CDAF288059B0BEB020C9C4526DD317B45
:1057B000012934D0F38901210092CDE901317346EA
:1057C0005946B268FFF7D2FE0120307327E004EBA0
:1057D000840C05EB8C06307B08B386F80C80F088CF
:1057E0004246F1898DE80700B388718835F82C00AE
:1057F000B268FFF7BBFE3069804710E005EB810619
:10580000317B61B1F189F288CDE90021CDF80880C2
:10581000B3887188B268FFF7A9FE86F80C80641C13
:10582000E4B238788442A7D307B0BDE8F08F000017
:10583000F809002045000020FEB500240C4D12E0C0
:105840000C4F04EB840607EB86000023C188C28955
:105850008DE80E0083884188826837F82600FFF7BC
:1058600085FE641CE4B228788442E9D3FEBD0000C2
:1058700045000020F80900203EB5094C00EB8005EA
:1058800004EB85000023C188C2898DE80E0083885F
:105890004188826834F82500FFF768FE3EBD0000AD
:1058A000F809002000EB8003044800EB83008388A4
:1058B00019448180C1881144C1807047F8090020D3
:1058C000F8B5114C069D267806EB86070F4E46F874
:1058D000270006EB87060027C6E9011237737373AA
:1058E0003561009500F02CF82078401CC0B2207083
:1058F000462807D30023012205A108A0FDF750FE8A
:1059000045202070F8BD000046000020700F0020E8
:10591000466174616C204572726F72004368656302
:105920006B426F7820636F756E74206F7665726658
:105930006C6F770001490020087070474600002016
:10594000F8B505460D2016460C4600900BB10C48E4
:1059500000E00C480A460D232946FCF717FD3046A7
:10596000FAF760FC00280AD00020E41C14350090EF
:10597000A1B2A8B24FF6FF733246FDF75BF8F8BD4F
:1059800050AC0008ACA90008034900EB800001EB13
:105990008000407B70470000700F00202DE9F84325
:1059A0002A4C00261746894680466670284D47E0F7
:1059B0002FB300EB800055F82020424535DC05EB85
:1059C00080008068FAF72EFC00EB4000142101EB08
:1059D0004001607800EB800055F820200A444245E1
:1059E00023D305EB8001486848451EDC0D3048454F
:1059F0001BDB087B012820D0012008731DE000EB91
:105A0000800C05EB8C00017BB9B10673417B51B171
:105A10000023437301690091D0E9011255F82C006D
:105A2000FFF78EFF09E00123F3E7607800EB8000C9
:105A300005EB8000017B01B106736078401C60704B
:105A4000607821788842B3D3BDE8F883460000200F
:105A5000700F0020014800787047000048000020C7
:105A60002DE9F041124C07469846E06815460E466F
:105A7000022807DB002301220EA111A0FDF790FDF3
:105A80000120E060014600EB8112134800EBC200E8
:105A90000022C0F810804760C0E902654270827041
:105AA000084600F031F8E068401CE060BDE8F08195
:105AB00048000020466174616C204572726F72006C
:105AC0004C697374426F7820636F756E74206F76C3
:105AD0006572666C6F770000E814002030B5084BE3
